{
  "contractName": "voting",
  "abi": [
    {
      "inputs": [],
      "stateMutability": "nonpayable",
      "type": "constructor"
    },
    {
      "inputs": [
        {
          "internalType": "address",
          "name": "",
          "type": "address"
        }
      ],
      "name": "voters",
      "outputs": [
        {
          "internalType": "bool",
          "name": "",
          "type": "bool"
        }
      ],
      "stateMutability": "view",
      "type": "function",
      "constant": true
    },
    {
      "inputs": [
        {
          "internalType": "uint256",
          "name": "id",
          "type": "uint256"
        }
      ],
      "name": "castVote",
      "outputs": [],
      "stateMutability": "nonpayable",
      "type": "function"
    },
    {
      "inputs": [],
      "name": "viewVotes",
      "outputs": [
        {
          "internalType": "uint256[3]",
          "name": "",
          "type": "uint256[3]"
        }
      ],
      "stateMutability": "view",
      "type": "function",
      "constant": true
    }
  ],
  "bytecode": "0x608060405234801561001057600080fd5b5060008060006003811061002757610026610067565b5b018190555060008060016003811061004257610041610067565b5b018190555060008060026003811061005d5761005c610067565b5b0181905550610096565b7f4e487b7100000000000000000000000000000000000000000000000000000000600052603260045260246000fd5b610576806100a56000396000f3fe608060405234801561001057600080fd5b50600436106100415760003560e01c80633eb76b9c14610046578063a3ec138d14610062578063ef2fd54d14610092575b600080fd5b610060600480360381019061005b91906102d8565b6100b0565b005b61007c60048036038101906100779190610363565b610210565b60405161008991906103ab565b60405180910390f35b61009a610230565b6040516100a79190610471565b60405180910390f35b600360003373ffffffffffffffffffffffffffffffffffffffff1673ffffffffffffffffffffffffffffffffffffffff16815260200190815260200160002060009054906101000a900460ff161561010757600080fd5b6001600360003373ffffffffffffffffffffffffffffffffffffffff1673ffffffffffffffffffffffffffffffffffffffff16815260200190815260200160002060006101000a81548160ff021916908315150217905550600081036101995760016000806003811061017d5761017c61048c565b5b01600082825461018d91906104ea565b9250508190555061020d565b600181036101d457600160006001600381106101b8576101b761048c565b5b0160008282546101c891906104ea565b9250508190555061020c565b6002810361020b57600160006002600381106101f3576101f261048c565b5b01600082825461020391906104ea565b925050819055505b5b5b50565b60036020528060005260406000206000915054906101000a900460ff1681565b61023861027b565b6000600380602002604051908101604052809291908260038015610271576020028201915b81548152602001906001019080831161025d575b5050505050905090565b6040518060600160405280600390602082028036833780820191505090505090565b600080fd5b6000819050919050565b6102b5816102a2565b81146102c057600080fd5b50565b6000813590506102d2816102ac565b92915050565b6000602082840312156102ee576102ed61029d565b5b60006102fc848285016102c3565b91505092915050565b600073ffffffffffffffffffffffffffffffffffffffff82169050919050565b600061033082610305565b9050919050565b61034081610325565b811461034b57600080fd5b50565b60008135905061035d81610337565b92915050565b6000602082840312156103795761037861029d565b5b60006103878482850161034e565b91505092915050565b60008115159050919050565b6103a581610390565b82525050565b60006020820190506103c0600083018461039c565b92915050565b600060039050919050565b600081905092915050565b6000819050919050565b6103ef816102a2565b82525050565b600061040183836103e6565b60208301905092915050565b6000602082019050919050565b610423816103c6565b61042d81846103d1565b9250610438826103dc565b8060005b8381101561046957815161045087826103f5565b965061045b8361040d565b92505060018101905061043c565b505050505050565b6000606082019050610486600083018461041a565b92915050565b7f4e487b7100000000000000000000000000000000000000000000000000000000600052603260045260246000fd5b7f4e487b7100000000000000000000000000000000000000000000000000000000600052601160045260246000fd5b60006104f5826102a2565b9150610500836102a2565b9250827fffffffffffffffffffffffffffffffffffffffffffffffffffffffffffffffff03821115610535576105346104bb565b5b82820190509291505056fea26469706673582212201f4843b61592afededf9d9086ac98da64b626f93d1640c80aa7915255ea53c0964736f6c634300080d0033",
  "immutableReferences": {},
  "source": "// SPDX-License-Identifier: MIT\npragma solidity >=0.4.22 <0.9.0;\n\ncontract voting {\n  uint[3] private votes;\n  mapping(address=>bool) public voters;\n\n  constructor() public {\n    votes[0]=0;\n    votes[1]=0;\n    votes[2]=0;\n  }\n  \n  function castVote(uint id)public{\n    require(!voters[msg.sender]);\n    voters[msg.sender]=true;\n    if(id==0){\n      votes[0]+=1;\n    } else if(id==1){\n      votes[1]+=1;\n    } else if(id==2){\n      votes[2]+=1;\n    }\n  }\n  \n  function viewVotes() public view returns(uint[3] memory){\n    return(votes);\n  }\n\n\n}\n",
  "sourcePath": "C:\\Users\\rohit raj\\Desktop\\VotingDapp\\contracts\\voting.sol",
  "compiler": {
    "name": "solc",
    "version": "0.8.13+commit.abaa5c0e.Emscripten.clang"
  },
  "schemaVersion": "3.4.16",
  "updatedAt": "2024-10-17T19:56:51.219Z",
  "networkType": "ethereum",
  "devdoc": {
    "kind": "dev",
    "methods": {},
    "version": 1
  },
  "userdoc": {
    "kind": "user",
    "methods": {},
    "version": 1
  }
}